{
  "contractName": "Akhil2",
  "abi": [
    {
      "inputs": [],
      "stateMutability": "nonpayable",
      "type": "constructor"
    },
    {
      "anonymous": false,
      "inputs": [
        {
          "indexed": true,
          "internalType": "address",
          "name": "owner",
          "type": "address"
        },
        {
          "indexed": true,
          "internalType": "address",
          "name": "approved",
          "type": "address"
        },
        {
          "indexed": true,
          "internalType": "uint256",
          "name": "tokenId",
          "type": "uint256"
        }
      ],
      "name": "Approval",
      "type": "event"
    },
    {
      "anonymous": false,
      "inputs": [
        {
          "indexed": true,
          "internalType": "address",
          "name": "owner",
          "type": "address"
        },
        {
          "indexed": true,
          "internalType": "address",
          "name": "operator",
          "type": "address"
        },
        {
          "indexed": false,
          "internalType": "bool",
          "name": "approved",
          "type": "bool"
        }
      ],
      "name": "ApprovalForAll",
      "type": "event"
    },
    {
      "anonymous": false,
      "inputs": [
        {
          "indexed": true,
          "internalType": "address",
          "name": "previousOwner",
          "type": "address"
        },
        {
          "indexed": true,
          "internalType": "address",
          "name": "newOwner",
          "type": "address"
        }
      ],
      "name": "OwnershipTransferred",
      "type": "event"
    },
    {
      "anonymous": false,
      "inputs": [
        {
          "indexed": true,
          "internalType": "address",
          "name": "from",
          "type": "address"
        },
        {
          "indexed": true,
          "internalType": "address",
          "name": "to",
          "type": "address"
        },
        {
          "indexed": true,
          "internalType": "uint256",
          "name": "tokenId",
          "type": "uint256"
        }
      ],
      "name": "Transfer",
      "type": "event"
    },
    {
      "inputs": [
        {
          "internalType": "address",
          "name": "to",
          "type": "address"
        },
        {
          "internalType": "uint256",
          "name": "tokenId",
          "type": "uint256"
        }
      ],
      "name": "approve",
      "outputs": [],
      "stateMutability": "nonpayable",
      "type": "function"
    },
    {
      "inputs": [
        {
          "internalType": "address",
          "name": "owner",
          "type": "address"
        }
      ],
      "name": "balanceOf",
      "outputs": [
        {
          "internalType": "uint256",
          "name": "",
          "type": "uint256"
        }
      ],
      "stateMutability": "view",
      "type": "function"
    },
    {
      "inputs": [
        {
          "internalType": "uint256",
          "name": "tokenId",
          "type": "uint256"
        }
      ],
      "name": "getApproved",
      "outputs": [
        {
          "internalType": "address",
          "name": "",
          "type": "address"
        }
      ],
      "stateMutability": "view",
      "type": "function"
    },
    {
      "inputs": [
        {
          "internalType": "address",
          "name": "owner",
          "type": "address"
        },
        {
          "internalType": "address",
          "name": "operator",
          "type": "address"
        }
      ],
      "name": "isApprovedForAll",
      "outputs": [
        {
          "internalType": "bool",
          "name": "",
          "type": "bool"
        }
      ],
      "stateMutability": "view",
      "type": "function"
    },
    {
      "inputs": [],
      "name": "name",
      "outputs": [
        {
          "internalType": "string",
          "name": "",
          "type": "string"
        }
      ],
      "stateMutability": "view",
      "type": "function"
    },
    {
      "inputs": [],
      "name": "owner",
      "outputs": [
        {
          "internalType": "address",
          "name": "",
          "type": "address"
        }
      ],
      "stateMutability": "view",
      "type": "function"
    },
    {
      "inputs": [
        {
          "internalType": "uint256",
          "name": "tokenId",
          "type": "uint256"
        }
      ],
      "name": "ownerOf",
      "outputs": [
        {
          "internalType": "address",
          "name": "",
          "type": "address"
        }
      ],
      "stateMutability": "view",
      "type": "function"
    },
    {
      "inputs": [],
      "name": "renounceOwnership",
      "outputs": [],
      "stateMutability": "nonpayable",
      "type": "function"
    },
    {
      "inputs": [
        {
          "internalType": "address",
          "name": "from",
          "type": "address"
        },
        {
          "internalType": "address",
          "name": "to",
          "type": "address"
        },
        {
          "internalType": "uint256",
          "name": "tokenId",
          "type": "uint256"
        }
      ],
      "name": "safeTransferFrom",
      "outputs": [],
      "stateMutability": "nonpayable",
      "type": "function"
    },
    {
      "inputs": [
        {
          "internalType": "address",
          "name": "from",
          "type": "address"
        },
        {
          "internalType": "address",
          "name": "to",
          "type": "address"
        },
        {
          "internalType": "uint256",
          "name": "tokenId",
          "type": "uint256"
        },
        {
          "internalType": "bytes",
          "name": "_data",
          "type": "bytes"
        }
      ],
      "name": "safeTransferFrom",
      "outputs": [],
      "stateMutability": "nonpayable",
      "type": "function"
    },
    {
      "inputs": [
        {
          "internalType": "address",
          "name": "operator",
          "type": "address"
        },
        {
          "internalType": "bool",
          "name": "approved",
          "type": "bool"
        }
      ],
      "name": "setApprovalForAll",
      "outputs": [],
      "stateMutability": "nonpayable",
      "type": "function"
    },
    {
      "inputs": [
        {
          "internalType": "bytes4",
          "name": "interfaceId",
          "type": "bytes4"
        }
      ],
      "name": "supportsInterface",
      "outputs": [
        {
          "internalType": "bool",
          "name": "",
          "type": "bool"
        }
      ],
      "stateMutability": "view",
      "type": "function"
    },
    {
      "inputs": [],
      "name": "symbol",
      "outputs": [
        {
          "internalType": "string",
          "name": "",
          "type": "string"
        }
      ],
      "stateMutability": "view",
      "type": "function"
    },
    {
      "inputs": [
        {
          "internalType": "address",
          "name": "from",
          "type": "address"
        },
        {
          "internalType": "address",
          "name": "to",
          "type": "address"
        },
        {
          "internalType": "uint256",
          "name": "tokenId",
          "type": "uint256"
        }
      ],
      "name": "transferFrom",
      "outputs": [],
      "stateMutability": "nonpayable",
      "type": "function"
    },
    {
      "inputs": [
        {
          "internalType": "address",
          "name": "newOwner",
          "type": "address"
        }
      ],
      "name": "transferOwnership",
      "outputs": [],
      "stateMutability": "nonpayable",
      "type": "function"
    },
    {
      "inputs": [
        {
          "internalType": "address",
          "name": "to",
          "type": "address"
        },
        {
          "internalType": "string",
          "name": "uri",
          "type": "string"
        }
      ],
      "name": "safeMint",
      "outputs": [],
      "stateMutability": "nonpayable",
      "type": "function"
    },
    {
      "inputs": [
        {
          "internalType": "uint256",
          "name": "tokenId",
          "type": "uint256"
        }
      ],
      "name": "tokenURI",
      "outputs": [
        {
          "internalType": "string",
          "name": "",
          "type": "string"
        }
      ],
      "stateMutability": "view",
      "type": "function"
    },
    {
      "inputs": [],
      "name": "count",
      "outputs": [
        {
          "internalType": "uint256",
          "name": "",
          "type": "uint256"
        }
      ],
      "stateMutability": "view",
      "type": "function"
    },
    {
      "inputs": [
        {
          "internalType": "address",
          "name": "recipient",
          "type": "address"
        },
        {
          "internalType": "string",
          "name": "metadataURI",
          "type": "string"
        }
      ],
      "name": "payToMint",
      "outputs": [
        {
          "internalType": "uint256",
          "name": "",
          "type": "uint256"
        }
      ],
      "stateMutability": "payable",
      "type": "function"
    }
  ],
  "bytecode": "0x60806040523480156200001157600080fd5b506040518060400160405280600681526020017f416b68696c3200000000000000000000000000000000000000000000000000008152506040518060400160405280600381526020017f414b490000000000000000000000000000000000000000000000000000000000815250816000908051906020019062000096929190620001a6565b508060019080519060200190620000af929190620001a6565b505050620000d2620000c6620000d860201b60201c565b620000e060201b60201c565b620002ba565b600033905090565b6000600760009054906101000a900473ffffffffffffffffffffffffffffffffffffffff16905081600760006101000a81548173ffffffffffffffffffffffffffffffffffffffff021916908373ffffffffffffffffffffffffffffffffffffffff1602179055508173ffffffffffffffffffffffffffffffffffffffff168173ffffffffffffffffffffffffffffffffffffffff167f8be0079c531659141344cd1fd0a4f28419497f9722a3daafe3b4186f6b6457e060405160405180910390a35050565b828054620001b49062000285565b90600052602060002090601f016020900481019282620001d8576000855562000224565b82601f10620001f357805160ff191683800117855562000224565b8280016001018555821562000224579182015b828111156200022357825182559160200191906001019062000206565b5b50905062000233919062000237565b5090565b5b808211156200025257600081600090555060010162000238565b5090565b7f4e487b7100000000000000000000000000000000000000000000000000000000600052602260045260246000fd5b600060028204905060018216806200029e57607f821691505b602082108103620002b457620002b362000256565b5b50919050565b6132e480620002ca6000396000f3fe6080604052600436106101145760003560e01c806370a08231116100a0578063b88d4fde11610064578063b88d4fde146103a4578063c87b56dd146103cd578063d204c45e1461040a578063e985e9c514610433578063f2fde38b1461047057610114565b806370a08231146102d1578063715018a61461030e5780638da5cb5b1461032557806395d89b4114610350578063a22cb4651461037b57610114565b8063095ea7b3116100e7578063095ea7b3146101e957806323b872dd1461021257806342842e0e1461023b578063615fd9e2146102645780636352211e1461029457610114565b806301ffc9a71461011957806306661abd1461015657806306fdde0314610181578063081812fc146101ac575b600080fd5b34801561012557600080fd5b50610140600480360381019061013b9190611eb8565b610499565b60405161014d9190611f00565b60405180910390f35b34801561016257600080fd5b5061016b61057b565b6040516101789190611f34565b60405180910390f35b34801561018d57600080fd5b5061019661058c565b6040516101a39190611fe8565b60405180910390f35b3480156101b857600080fd5b506101d360048036038101906101ce9190612036565b61061e565b6040516101e091906120a4565b60405180910390f35b3480156101f557600080fd5b50610210600480360381019061020b91906120eb565b6106a3565b005b34801561021e57600080fd5b506102396004803603810190610234919061212b565b6107ba565b005b34801561024757600080fd5b50610262600480360381019061025d919061212b565b61081a565b005b61027e600480360381019061027991906122b3565b61083a565b60405161028b9190611f34565b60405180910390f35b3480156102a057600080fd5b506102bb60048036038101906102b69190612036565b6108bc565b6040516102c891906120a4565b60405180910390f35b3480156102dd57600080fd5b506102f860048036038101906102f3919061230f565b61096d565b6040516103059190611f34565b60405180910390f35b34801561031a57600080fd5b50610323610a24565b005b34801561033157600080fd5b5061033a610aac565b60405161034791906120a4565b60405180910390f35b34801561035c57600080fd5b50610365610ad6565b6040516103729190611fe8565b60405180910390f35b34801561038757600080fd5b506103a2600480360381019061039d9190612368565b610b68565b005b3480156103b057600080fd5b506103cb60048036038101906103c69190612449565b610b7e565b005b3480156103d957600080fd5b506103f460048036038101906103ef9190612036565b610be0565b6040516104019190611fe8565b60405180910390f35b34801561041657600080fd5b50610431600480360381019061042c91906122b3565b610bf2565b005b34801561043f57600080fd5b5061045a600480360381019061045591906124cc565b610c9f565b6040516104679190611f00565b60405180910390f35b34801561047c57600080fd5b506104976004803603810190610492919061230f565b610d33565b005b60007f80ac58cd000000000000000000000000000000000000000000000000000000007bffffffffffffffffffffffffffffffffffffffffffffffffffffffff1916827bffffffffffffffffffffffffffffffffffffffffffffffffffffffff1916148061056457507f5b5e139f000000000000000000000000000000000000000000000000000000007bffffffffffffffffffffffffffffffffffffffffffffffffffffffff1916827bffffffffffffffffffffffffffffffffffffffffffffffffffffffff1916145b80610574575061057382610e2a565b5b9050919050565b60006105876008610e94565b905090565b60606000805461059b9061253b565b80601f01602080910402602001604051908101604052809291908181526020018280546105c79061253b565b80156106145780601f106105e957610100808354040283529160200191610614565b820191906000526020600020905b8154815290600101906020018083116105f757829003601f168201915b5050505050905090565b600061062982610ea2565b610668576040517f08c379a000000000000000000000000000000000000000000000000000000000815260040161065f906125de565b60405180910390fd5b6004600083815260200190815260200160002060009054906101000a900473ffffffffffffffffffffffffffffffffffffffff169050919050565b60006106ae826108bc565b90508073ffffffffffffffffffffffffffffffffffffffff168373ffffffffffffffffffffffffffffffffffffffff160361071e576040517f08c379a000000000000000000000000000000000000000000000000000000000815260040161071590612670565b60405180910390fd5b8073ffffffffffffffffffffffffffffffffffffffff1661073d610f0e565b73ffffffffffffffffffffffffffffffffffffffff16148061076c575061076b81610766610f0e565b610c9f565b5b6107ab576040517f08c379a00000000000000000000000000000000000000000000000000000000081526004016107a290612702565b60405180910390fd5b6107b58383610f16565b505050565b6107cb6107c5610f0e565b82610fcf565b61080a576040517f08c379a000000000000000000000000000000000000000000000000000000000815260040161080190612794565b60405180910390fd5b6108158383836110ad565b505050565b61083583838360405180602001604052806000815250610b7e565b505050565b60006611c37937e08000341015610886576040517f08c379a000000000000000000000000000000000000000000000000000000000815260040161087d90612800565b60405180910390fd5b60006108926008610e94565b905061089e6008611313565b6108a88482611329565b6108b28184611502565b8091505092915050565b6000806002600084815260200190815260200160002060009054906101000a900473ffffffffffffffffffffffffffffffffffffffff169050600073ffffffffffffffffffffffffffffffffffffffff168173ffffffffffffffffffffffffffffffffffffffff1603610964576040517f08c379a000000000000000000000000000000000000000000000000000000000815260040161095b90612892565b60405180910390fd5b80915050919050565b60008073ffffffffffffffffffffffffffffffffffffffff168273ffffffffffffffffffffffffffffffffffffffff16036109dd576040517f08c379a00000000000000000000000000000000000000000000000000000000081526004016109d490612924565b60405180910390fd5b600360008373ffffffffffffffffffffffffffffffffffffffff1673ffffffffffffffffffffffffffffffffffffffff168152602001908152602001600020549050919050565b610a2c610f0e565b73ffffffffffffffffffffffffffffffffffffffff16610a4a610aac565b73ffffffffffffffffffffffffffffffffffffffff1614610aa0576040517f08c379a0000000000000000000000000000000000000000000000000000000008152600401610a9790612990565b60405180910390fd5b610aaa6000611576565b565b6000600760009054906101000a900473ffffffffffffffffffffffffffffffffffffffff16905090565b606060018054610ae59061253b565b80601f0160208091040260200160405190810160405280929190818152602001828054610b119061253b565b8015610b5e5780601f10610b3357610100808354040283529160200191610b5e565b820191906000526020600020905b815481529060010190602001808311610b4157829003601f168201915b5050505050905090565b610b7a610b73610f0e565b838361163c565b5050565b610b8f610b89610f0e565b83610fcf565b610bce576040517f08c379a0000000000000000000000000000000000000000000000000000000008152600401610bc590612794565b60405180910390fd5b610bda848484846117a8565b50505050565b6060610beb82611804565b9050919050565b610bfa610f0e565b73ffffffffffffffffffffffffffffffffffffffff16610c18610aac565b73ffffffffffffffffffffffffffffffffffffffff1614610c6e576040517f08c379a0000000000000000000000000000000000000000000000000000000008152600401610c6590612990565b60405180910390fd5b6000610c7a6008610e94565b9050610c866008611313565b610c908382611955565b610c9a8183611502565b505050565b6000600560008473ffffffffffffffffffffffffffffffffffffffff1673ffffffffffffffffffffffffffffffffffffffff16815260200190815260200160002060008373ffffffffffffffffffffffffffffffffffffffff1673ffffffffffffffffffffffffffffffffffffffff16815260200190815260200160002060009054906101000a900460ff16905092915050565b610d3b610f0e565b73ffffffffffffffffffffffffffffffffffffffff16610d59610aac565b73ffffffffffffffffffffffffffffffffffffffff1614610daf576040517f08c379a0000000000000000000000000000000000000000000000000000000008152600401610da690612990565b60405180910390fd5b600073ffffffffffffffffffffffffffffffffffffffff168173ffffffffffffffffffffffffffffffffffffffff1603610e1e576040517f08c379a0000000000000000000000000000000000000000000000000000000008152600401610e1590612a22565b60405180910390fd5b610e2781611576565b50565b60007f01ffc9a7000000000000000000000000000000000000000000000000000000007bffffffffffffffffffffffffffffffffffffffffffffffffffffffff1916827bffffffffffffffffffffffffffffffffffffffffffffffffffffffff1916149050919050565b600081600001549050919050565b60008073ffffffffffffffffffffffffffffffffffffffff166002600084815260200190815260200160002060009054906101000a900473ffffffffffffffffffffffffffffffffffffffff1673ffffffffffffffffffffffffffffffffffffffff1614159050919050565b600033905090565b816004600083815260200190815260200160002060006101000a81548173ffffffffffffffffffffffffffffffffffffffff021916908373ffffffffffffffffffffffffffffffffffffffff160217905550808273ffffffffffffffffffffffffffffffffffffffff16610f89836108bc565b73ffffffffffffffffffffffffffffffffffffffff167f8c5be1e5ebec7d5bd14f71427d1e84f3dd0314c0f7b2291e5b200ac8c7c3b92560405160405180910390a45050565b6000610fda82610ea2565b611019576040517f08c379a000000000000000000000000000000000000000000000000000000000815260040161101090612ab4565b60405180910390fd5b6000611024836108bc565b90508073ffffffffffffffffffffffffffffffffffffffff168473ffffffffffffffffffffffffffffffffffffffff16148061109357508373ffffffffffffffffffffffffffffffffffffffff1661107b8461061e565b73ffffffffffffffffffffffffffffffffffffffff16145b806110a457506110a38185610c9f565b5b91505092915050565b8273ffffffffffffffffffffffffffffffffffffffff166110cd826108bc565b73ffffffffffffffffffffffffffffffffffffffff1614611123576040517f08c379a000000000000000000000000000000000000000000000000000000000815260040161111a90612b46565b60405180910390fd5b600073ffffffffffffffffffffffffffffffffffffffff168273ffffffffffffffffffffffffffffffffffffffff1603611192576040517f08c379a000000000000000000000000000000000000000000000000000000000815260040161118990612bd8565b60405180910390fd5b61119d838383611973565b6111a8600082610f16565b6001600360008573ffffffffffffffffffffffffffffffffffffffff1673ffffffffffffffffffffffffffffffffffffffff16815260200190815260200160002060008282546111f89190612c27565b925050819055506001600360008473ffffffffffffffffffffffffffffffffffffffff1673ffffffffffffffffffffffffffffffffffffffff168152602001908152602001600020600082825461124f9190612c5b565b92505081905550816002600083815260200190815260200160002060006101000a81548173ffffffffffffffffffffffffffffffffffffffff021916908373ffffffffffffffffffffffffffffffffffffffff160217905550808273ffffffffffffffffffffffffffffffffffffffff168473ffffffffffffffffffffffffffffffffffffffff167fddf252ad1be2c89b69c2b068fc378daa952ba7f163c4a11628f55a4df523b3ef60405160405180910390a461130e838383611978565b505050565b6001816000016000828254019250508190555050565b600073ffffffffffffffffffffffffffffffffffffffff168273ffffffffffffffffffffffffffffffffffffffff1603611398576040517f08c379a000000000000000000000000000000000000000000000000000000000815260040161138f90612cfd565b60405180910390fd5b6113a181610ea2565b156113e1576040517f08c379a00000000000000000000000000000000000000000000000000000000081526004016113d890612d69565b60405180910390fd5b6113ed60008383611973565b6001600360008473ffffffffffffffffffffffffffffffffffffffff1673ffffffffffffffffffffffffffffffffffffffff168152602001908152602001600020600082825461143d9190612c5b565b92505081905550816002600083815260200190815260200160002060006101000a81548173ffffffffffffffffffffffffffffffffffffffff021916908373ffffffffffffffffffffffffffffffffffffffff160217905550808273ffffffffffffffffffffffffffffffffffffffff16600073ffffffffffffffffffffffffffffffffffffffff167fddf252ad1be2c89b69c2b068fc378daa952ba7f163c4a11628f55a4df523b3ef60405160405180910390a46114fe60008383611978565b5050565b61150b82610ea2565b61154a576040517f08c379a000000000000000000000000000000000000000000000000000000000815260040161154190612dfb565b60405180910390fd5b80600660008481526020019081526020016000209080519060200190611571929190611da9565b505050565b6000600760009054906101000a900473ffffffffffffffffffffffffffffffffffffffff16905081600760006101000a81548173ffffffffffffffffffffffffffffffffffffffff021916908373ffffffffffffffffffffffffffffffffffffffff1602179055508173ffffffffffffffffffffffffffffffffffffffff168173ffffffffffffffffffffffffffffffffffffffff167f8be0079c531659141344cd1fd0a4f28419497f9722a3daafe3b4186f6b6457e060405160405180910390a35050565b8173ffffffffffffffffffffffffffffffffffffffff168373ffffffffffffffffffffffffffffffffffffffff16036116aa576040517f08c379a00000000000000000000000000000000000000000000000000000000081526004016116a190612e67565b60405180910390fd5b80600560008573ffffffffffffffffffffffffffffffffffffffff1673ffffffffffffffffffffffffffffffffffffffff16815260200190815260200160002060008473ffffffffffffffffffffffffffffffffffffffff1673ffffffffffffffffffffffffffffffffffffffff16815260200190815260200160002060006101000a81548160ff0219169083151502179055508173ffffffffffffffffffffffffffffffffffffffff168373ffffffffffffffffffffffffffffffffffffffff167f17307eab39ab6107e8899845ad3d59bd9653f200f220920489ca2b5937696c318360405161179b9190611f00565b60405180910390a3505050565b6117b38484846110ad565b6117bf8484848461197d565b6117fe576040517f08c379a00000000000000000000000000000000000000000000000000000000081526004016117f590612ef9565b60405180910390fd5b50505050565b606061180f82610ea2565b61184e576040517f08c379a000000000000000000000000000000000000000000000000000000000815260040161184590612f8b565b60405180910390fd5b600060066000848152602001908152602001600020805461186e9061253b565b80601f016020809104026020016040519081016040528092919081815260200182805461189a9061253b565b80156118e75780601f106118bc576101008083540402835291602001916118e7565b820191906000526020600020905b8154815290600101906020018083116118ca57829003601f168201915b5050505050905060006118f8611b04565b9050600081510361190d578192505050611950565b60008251111561194257808260405160200161192a929190612fe7565b60405160208183030381529060405292505050611950565b61194b84611b24565b925050505b919050565b61196f828260405180602001604052806000815250611bcb565b5050565b505050565b505050565b600061199e8473ffffffffffffffffffffffffffffffffffffffff16611c26565b15611af7578373ffffffffffffffffffffffffffffffffffffffff1663150b7a026119c7610f0e565b8786866040518563ffffffff1660e01b81526004016119e99493929190613060565b6020604051808303816000875af1925050508015611a2557506040513d601f19601f82011682018060405250810190611a2291906130c1565b60015b611aa7573d8060008114611a55576040519150601f19603f3d011682016040523d82523d6000602084013e611a5a565b606091505b506000815103611a9f576040517f08c379a0000000000000000000000000000000000000000000000000000000008152600401611a9690612ef9565b60405180910390fd5b805181602001fd5b63150b7a0260e01b7bffffffffffffffffffffffffffffffffffffffffffffffffffffffff1916817bffffffffffffffffffffffffffffffffffffffffffffffffffffffff191614915050611afc565b600190505b949350505050565b606060405180606001604052806026815260200161328960269139905090565b6060611b2f82610ea2565b611b6e576040517f08c379a0000000000000000000000000000000000000000000000000000000008152600401611b6590613160565b60405180910390fd5b6000611b78611b04565b90506000815111611b985760405180602001604052806000815250611bc3565b80611ba284611c49565b604051602001611bb3929190612fe7565b6040516020818303038152906040525b915050919050565b611bd58383611329565b611be2600084848461197d565b611c21576040517f08c379a0000000000000000000000000000000000000000000000000000000008152600401611c1890612ef9565b60405180910390fd5b505050565b6000808273ffffffffffffffffffffffffffffffffffffffff163b119050919050565b606060008203611c90576040518060400160405280600181526020017f30000000000000000000000000000000000000000000000000000000000000008152509050611da4565b600082905060005b60008214611cc2578080611cab90613180565b915050600a82611cbb91906131f7565b9150611c98565b60008167ffffffffffffffff811115611cde57611cdd612188565b5b6040519080825280601f01601f191660200182016040528015611d105781602001600182028036833780820191505090505b5090505b60008514611d9d57600182611d299190612c27565b9150600a85611d389190613228565b6030611d449190612c5b565b60f81b818381518110611d5a57611d59613259565b5b60200101907effffffffffffffffffffffffffffffffffffffffffffffffffffffffffffff1916908160001a905350600a85611d9691906131f7565b9450611d14565b8093505050505b919050565b828054611db59061253b565b90600052602060002090601f016020900481019282611dd75760008555611e1e565b82601f10611df057805160ff1916838001178555611e1e565b82800160010185558215611e1e579182015b82811115611e1d578251825591602001919060010190611e02565b5b509050611e2b9190611e2f565b5090565b5b80821115611e48576000816000905550600101611e30565b5090565b6000604051905090565b600080fd5b600080fd5b60007fffffffff0000000000000000000000000000000000000000000000000000000082169050919050565b611e9581611e60565b8114611ea057600080fd5b50565b600081359050611eb281611e8c565b92915050565b600060208284031215611ece57611ecd611e56565b5b6000611edc84828501611ea3565b91505092915050565b60008115159050919050565b611efa81611ee5565b82525050565b6000602082019050611f156000830184611ef1565b92915050565b6000819050919050565b611f2e81611f1b565b82525050565b6000602082019050611f496000830184611f25565b92915050565b600081519050919050565b600082825260208201905092915050565b60005b83811015611f89578082015181840152602081019050611f6e565b83811115611f98576000848401525b50505050565b6000601f19601f8301169050919050565b6000611fba82611f4f565b611fc48185611f5a565b9350611fd4818560208601611f6b565b611fdd81611f9e565b840191505092915050565b600060208201905081810360008301526120028184611faf565b905092915050565b61201381611f1b565b811461201e57600080fd5b50565b6000813590506120308161200a565b92915050565b60006020828403121561204c5761204b611e56565b5b600061205a84828501612021565b91505092915050565b600073ffffffffffffffffffffffffffffffffffffffff82169050919050565b600061208e82612063565b9050919050565b61209e81612083565b82525050565b60006020820190506120b96000830184612095565b92915050565b6120c881612083565b81146120d357600080fd5b50565b6000813590506120e5816120bf565b92915050565b6000806040838503121561210257612101611e56565b5b6000612110858286016120d6565b925050602061212185828601612021565b9150509250929050565b60008060006060848603121561214457612143611e56565b5b6000612152868287016120d6565b9350506020612163868287016120d6565b925050604061217486828701612021565b9150509250925092565b600080fd5b600080fd5b7f4e487b7100000000000000000000000000000000000000000000000000000000600052604160045260246000fd5b6121c082611f9e565b810181811067ffffffffffffffff821117156121df576121de612188565b5b80604052505050565b60006121f2611e4c565b90506121fe82826121b7565b919050565b600067ffffffffffffffff82111561221e5761221d612188565b5b61222782611f9e565b9050602081019050919050565b82818337600083830152505050565b600061225661225184612203565b6121e8565b90508281526020810184848401111561227257612271612183565b5b61227d848285612234565b509392505050565b600082601f83011261229a5761229961217e565b5b81356122aa848260208601612243565b91505092915050565b600080604083850312156122ca576122c9611e56565b5b60006122d8858286016120d6565b925050602083013567ffffffffffffffff8111156122f9576122f8611e5b565b5b61230585828601612285565b9150509250929050565b60006020828403121561232557612324611e56565b5b6000612333848285016120d6565b91505092915050565b61234581611ee5565b811461235057600080fd5b50565b6000813590506123628161233c565b92915050565b6000806040838503121561237f5761237e611e56565b5b600061238d858286016120d6565b925050602061239e85828601612353565b9150509250929050565b600067ffffffffffffffff8211156123c3576123c2612188565b5b6123cc82611f9e565b9050602081019050919050565b60006123ec6123e7846123a8565b6121e8565b90508281526020810184848401111561240857612407612183565b5b612413848285612234565b509392505050565b600082601f8301126124305761242f61217e565b5b81356124408482602086016123d9565b91505092915050565b6000806000806080858703121561246357612462611e56565b5b6000612471878288016120d6565b9450506020612482878288016120d6565b935050604061249387828801612021565b925050606085013567ffffffffffffffff8111156124b4576124b3611e5b565b5b6124c08782880161241b565b91505092959194509250565b600080604083850312156124e3576124e2611e56565b5b60006124f1858286016120d6565b9250506020612502858286016120d6565b9150509250929050565b7f4e487b7100000000000000000000000000000000000000000000000000000000600052602260045260246000fd5b6000600282049050600182168061255357607f821691505b6020821081036125665761256561250c565b5b50919050565b7f4552433732313a20617070726f76656420717565727920666f72206e6f6e657860008201527f697374656e7420746f6b656e0000000000000000000000000000000000000000602082015250565b60006125c8602c83611f5a565b91506125d38261256c565b604082019050919050565b600060208201905081810360008301526125f7816125bb565b9050919050565b7f4552433732313a20617070726f76616c20746f2063757272656e74206f776e6560008201527f7200000000000000000000000000000000000000000000000000000000000000602082015250565b600061265a602183611f5a565b9150612665826125fe565b604082019050919050565b600060208201905081810360008301526126898161264d565b9050919050565b7f4552433732313a20617070726f76652063616c6c6572206973206e6f74206f7760008201527f6e6572206e6f7220617070726f76656420666f7220616c6c0000000000000000602082015250565b60006126ec603883611f5a565b91506126f782612690565b604082019050919050565b6000602082019050818103600083015261271b816126df565b9050919050565b7f4552433732313a207472616e736665722063616c6c6572206973206e6f74206f60008201527f776e6572206e6f7220617070726f766564000000000000000000000000000000602082015250565b600061277e603183611f5a565b915061278982612722565b604082019050919050565b600060208201905081810360008301526127ad81612771565b9050919050565b7f4e6f204361736821210000000000000000000000000000000000000000000000600082015250565b60006127ea600983611f5a565b91506127f5826127b4565b602082019050919050565b60006020820190508181036000830152612819816127dd565b9050919050565b7f4552433732313a206f776e657220717565727920666f72206e6f6e657869737460008201527f656e7420746f6b656e0000000000000000000000000000000000000000000000602082015250565b600061287c602983611f5a565b915061288782612820565b604082019050919050565b600060208201905081810360008301526128ab8161286f565b9050919050565b7f4552433732313a2062616c616e636520717565727920666f7220746865207a6560008201527f726f206164647265737300000000000000000000000000000000000000000000602082015250565b600061290e602a83611f5a565b9150612919826128b2565b604082019050919050565b6000602082019050818103600083015261293d81612901565b9050919050565b7f4f776e61626c653a2063616c6c6572206973206e6f7420746865206f776e6572600082015250565b600061297a602083611f5a565b915061298582612944565b602082019050919050565b600060208201905081810360008301526129a98161296d565b9050919050565b7f4f776e61626c653a206e6577206f776e657220697320746865207a65726f206160008201527f6464726573730000000000000000000000000000000000000000000000000000602082015250565b6000612a0c602683611f5a565b9150612a17826129b0565b604082019050919050565b60006020820190508181036000830152612a3b816129ff565b9050919050565b7f4552433732313a206f70657261746f7220717565727920666f72206e6f6e657860008201527f697374656e7420746f6b656e0000000000000000000000000000000000000000602082015250565b6000612a9e602c83611f5a565b9150612aa982612a42565b604082019050919050565b60006020820190508181036000830152612acd81612a91565b9050919050565b7f4552433732313a207472616e736665722066726f6d20696e636f72726563742060008201527f6f776e6572000000000000000000000000000000000000000000000000000000602082015250565b6000612b30602583611f5a565b9150612b3b82612ad4565b604082019050919050565b60006020820190508181036000830152612b5f81612b23565b9050919050565b7f4552433732313a207472616e7366657220746f20746865207a65726f2061646460008201527f7265737300000000000000000000000000000000000000000000000000000000602082015250565b6000612bc2602483611f5a565b9150612bcd82612b66565b604082019050919050565b60006020820190508181036000830152612bf181612bb5565b9050919050565b7f4e487b7100000000000000000000000000000000000000000000000000000000600052601160045260246000fd5b6000612c3282611f1b565b9150612c3d83611f1b565b925082821015612c5057612c4f612bf8565b5b828203905092915050565b6000612c6682611f1b565b9150612c7183611f1b565b9250827fffffffffffffffffffffffffffffffffffffffffffffffffffffffffffffffff03821115612ca657612ca5612bf8565b5b828201905092915050565b7f4552433732313a206d696e7420746f20746865207a65726f2061646472657373600082015250565b6000612ce7602083611f5a565b9150612cf282612cb1565b602082019050919050565b60006020820190508181036000830152612d1681612cda565b9050919050565b7f4552433732313a20746f6b656e20616c7265616479206d696e74656400000000600082015250565b6000612d53601c83611f5a565b9150612d5e82612d1d565b602082019050919050565b60006020820190508181036000830152612d8281612d46565b9050919050565b7f45524337323155524953746f726167653a2055524920736574206f66206e6f6e60008201527f6578697374656e7420746f6b656e000000000000000000000000000000000000602082015250565b6000612de5602e83611f5a565b9150612df082612d89565b604082019050919050565b60006020820190508181036000830152612e1481612dd8565b9050919050565b7f4552433732313a20617070726f766520746f2063616c6c657200000000000000600082015250565b6000612e51601983611f5a565b9150612e5c82612e1b565b602082019050919050565b60006020820190508181036000830152612e8081612e44565b9050919050565b7f4552433732313a207472616e7366657220746f206e6f6e20455243373231526560008201527f63656976657220696d706c656d656e7465720000000000000000000000000000602082015250565b6000612ee3603283611f5a565b9150612eee82612e87565b604082019050919050565b60006020820190508181036000830152612f1281612ed6565b9050919050565b7f45524337323155524953746f726167653a2055524920717565727920666f722060008201527f6e6f6e6578697374656e7420746f6b656e000000000000000000000000000000602082015250565b6000612f75603183611f5a565b9150612f8082612f19565b604082019050919050565b60006020820190508181036000830152612fa481612f68565b9050919050565b600081905092915050565b6000612fc182611f4f565b612fcb8185612fab565b9350612fdb818560208601611f6b565b80840191505092915050565b6000612ff38285612fb6565b9150612fff8284612fb6565b91508190509392505050565b600081519050919050565b600082825260208201905092915050565b60006130328261300b565b61303c8185613016565b935061304c818560208601611f6b565b61305581611f9e565b840191505092915050565b60006080820190506130756000830187612095565b6130826020830186612095565b61308f6040830185611f25565b81810360608301526130a18184613027565b905095945050505050565b6000815190506130bb81611e8c565b92915050565b6000602082840312156130d7576130d6611e56565b5b60006130e5848285016130ac565b91505092915050565b7f4552433732314d657461646174613a2055524920717565727920666f72206e6f60008201527f6e6578697374656e7420746f6b656e0000000000000000000000000000000000602082015250565b600061314a602f83611f5a565b9150613155826130ee565b604082019050919050565b600060208201905081810360008301526131798161313d565b9050919050565b600061318b82611f1b565b91507fffffffffffffffffffffffffffffffffffffffffffffffffffffffffffffffff82036131bd576131bc612bf8565b5b600182019050919050565b7f4e487b7100000000000000000000000000000000000000000000000000000000600052601260045260246000fd5b600061320282611f1b565b915061320d83611f1b565b92508261321d5761321c6131c8565b5b828204905092915050565b600061323382611f1b565b915061323e83611f1b565b92508261324e5761324d6131c8565b5b828206905092915050565b7f4e487b7100000000000000000000000000000000000000000000000000000000600052603260045260246000fdfe68747470733a2f2f6365727469737572652e696e667572612d697066732e696f2f697066732fa2646970667358221220580a1f63fa9ae03ddce64a69f32b67d04d7514f2bbd8e6959802fde2ee91b09364736f6c634300080d0033",
  "immutableReferences": {},
  "source": "// SPDX-License-Identifier: MIT\npragma solidity ^0.8.4;\n\nimport \"@openzeppelin/contracts/token/ERC721/ERC721.sol\";\nimport \"@openzeppelin/contracts/token/ERC721/extensions/ERC721URIStorage.sol\";\nimport \"@openzeppelin/contracts/access/Ownable.sol\";\nimport \"@openzeppelin/contracts/utils/Counters.sol\";\n\ncontract Akhil2 is ERC721, ERC721URIStorage, Ownable {\n    using Counters for Counters.Counter;\n\n    Counters.Counter private _tokenIdCounter;\n\n    constructor() ERC721(\"Akhil2\", \"AKI\") {}\n\n    function _baseURI() internal pure override returns (string memory) {\n        return \"https://certisure.infura-ipfs.io/ipfs/\";\n    }\n\n    function safeMint(address to, string memory uri) public onlyOwner {\n        uint256 tokenId = _tokenIdCounter.current();\n        _tokenIdCounter.increment();\n        _safeMint(to, tokenId);\n        _setTokenURI(tokenId, uri);\n    }\n\n    // The following functions are overrides required by Solidity.\n\n    function _burn(uint256 tokenId) internal override(ERC721, ERC721URIStorage) {\n        super._burn(tokenId);\n    }\n\n    function tokenURI(uint256 tokenId)\n        public\n        view\n        override(ERC721, ERC721URIStorage)\n        returns (string memory)\n    {\n        return super.tokenURI(tokenId);\n    }\n    \n    function count() public view returns (uint256) {\n        return _tokenIdCounter.current();\n    }\n\n        function payToMint(\n        address recipient,\n        string memory metadataURI\n    ) public payable returns (uint256) {\n        require (msg.value >= 0.005 ether, 'No Cash!!');\n        uint256 newItemId = _tokenIdCounter.current();\n        _tokenIdCounter.increment();\n\n        _mint(recipient, newItemId);\n        _setTokenURI(newItemId, metadataURI);\n\n        return newItemId;\n    }\n}",
  "sourcePath": "/home/krishnashed/Desktop/Certisure/NFT1-master/contracts/Akhil2.sol",
  "compiler": {
    "name": "solc",
    "version": "0.8.13+commit.abaa5c0e.Emscripten.clang"
  },
  "schemaVersion": "3.4.7",
  "updatedAt": "2022-05-13T16:42:23.400Z",
  "devdoc": {
    "kind": "dev",
    "methods": {
      "approve(address,uint256)": {
        "details": "See {IERC721-approve}."
      },
      "balanceOf(address)": {
        "details": "See {IERC721-balanceOf}."
      },
      "getApproved(uint256)": {
        "details": "See {IERC721-getApproved}."
      },
      "isApprovedForAll(address,address)": {
        "details": "See {IERC721-isApprovedForAll}."
      },
      "name()": {
        "details": "See {IERC721Metadata-name}."
      },
      "owner()": {
        "details": "Returns the address of the current owner."
      },
      "ownerOf(uint256)": {
        "details": "See {IERC721-ownerOf}."
      },
      "renounceOwnership()": {
        "details": "Leaves the contract without owner. It will not be possible to call `onlyOwner` functions anymore. Can only be called by the current owner. NOTE: Renouncing ownership will leave the contract without an owner, thereby removing any functionality that is only available to the owner."
      },
      "safeTransferFrom(address,address,uint256)": {
        "details": "See {IERC721-safeTransferFrom}."
      },
      "safeTransferFrom(address,address,uint256,bytes)": {
        "details": "See {IERC721-safeTransferFrom}."
      },
      "setApprovalForAll(address,bool)": {
        "details": "See {IERC721-setApprovalForAll}."
      },
      "supportsInterface(bytes4)": {
        "details": "See {IERC165-supportsInterface}."
      },
      "symbol()": {
        "details": "See {IERC721Metadata-symbol}."
      },
      "transferFrom(address,address,uint256)": {
        "details": "See {IERC721-transferFrom}."
      },
      "transferOwnership(address)": {
        "details": "Transfers ownership of the contract to a new account (`newOwner`). Can only be called by the current owner."
      }
    },
    "version": 1
  },
  "userdoc": {
    "kind": "user",
    "methods": {},
    "version": 1
  }
}