{
  "contractName": "Box2",
  "abi": [
    {
      "anonymous": false,
      "inputs": [
        {
          "indexed": true,
          "internalType": "address",
          "name": "previousOwner",
          "type": "address"
        },
        {
          "indexed": true,
          "internalType": "address",
          "name": "newOwner",
          "type": "address"
        }
      ],
      "name": "OwnershipTransferred",
      "type": "event"
    },
    {
      "inputs": [],
      "name": "owner",
      "outputs": [
        {
          "internalType": "address",
          "name": "",
          "type": "address"
        }
      ],
      "stateMutability": "view",
      "type": "function",
      "constant": true
    },
    {
      "inputs": [],
      "name": "renounceOwnership",
      "outputs": [],
      "stateMutability": "nonpayable",
      "type": "function"
    },
    {
      "inputs": [
        {
          "internalType": "address",
          "name": "newOwner",
          "type": "address"
        }
      ],
      "name": "transferOwnership",
      "outputs": [],
      "stateMutability": "nonpayable",
      "type": "function"
    },
    {
      "inputs": [
        {
          "internalType": "uint256",
          "name": "value",
          "type": "uint256"
        }
      ],
      "name": "store2",
      "outputs": [],
      "stateMutability": "nonpayable",
      "type": "function"
    },
    {
      "inputs": [
        {
          "internalType": "uint256",
          "name": "value",
          "type": "uint256"
        }
      ],
      "name": "addData",
      "outputs": [],
      "stateMutability": "nonpayable",
      "type": "function"
    },
    {
      "inputs": [],
      "name": "retrieve",
      "outputs": [
        {
          "internalType": "uint256",
          "name": "",
          "type": "uint256"
        }
      ],
      "stateMutability": "view",
      "type": "function",
      "constant": true
    }
  ],
  "bytecode": "0x608060405234801561001057600080fd5b5061002d61002261003260201b60201c565b61003a60201b60201c565b6100fe565b600033905090565b60008060009054906101000a900473ffffffffffffffffffffffffffffffffffffffff169050816000806101000a81548173ffffffffffffffffffffffffffffffffffffffff021916908373ffffffffffffffffffffffffffffffffffffffff1602179055508173ffffffffffffffffffffffffffffffffffffffff168173ffffffffffffffffffffffffffffffffffffffff167f8be0079c531659141344cd1fd0a4f28419497f9722a3daafe3b4186f6b6457e060405160405180910390a35050565b6107178061010d6000396000f3fe608060405234801561001057600080fd5b50600436106100625760003560e01c806327f151f5146100675780632e64cec114610083578063715018a6146100a15780638da5cb5b146100ab578063e5d824a7146100c9578063f2fde38b146100e5575b600080fd5b610081600480360381019061007c91906104c6565b610101565b005b61008b610187565b6040516100989190610502565b60405180910390f35b6100a9610191565b005b6100b3610219565b6040516100c0919061055e565b60405180910390f35b6100e360048036038101906100de91906104c6565b610242565b005b6100ff60048036038101906100fa91906105a5565b6102c8565b005b6101096103bf565b73ffffffffffffffffffffffffffffffffffffffff16610127610219565b73ffffffffffffffffffffffffffffffffffffffff161461017d576040517f08c379a00000000000000000000000000000000000000000000000000000000081526004016101749061062f565b60405180910390fd5b8060018190555050565b6000600154905090565b6101996103bf565b73ffffffffffffffffffffffffffffffffffffffff166101b7610219565b73ffffffffffffffffffffffffffffffffffffffff161461020d576040517f08c379a00000000000000000000000000000000000000000000000000000000081526004016102049061062f565b60405180910390fd5b61021760006103c7565b565b60008060009054906101000a900473ffffffffffffffffffffffffffffffffffffffff16905090565b61024a6103bf565b73ffffffffffffffffffffffffffffffffffffffff16610268610219565b73ffffffffffffffffffffffffffffffffffffffff16146102be576040517f08c379a00000000000000000000000000000000000000000000000000000000081526004016102b59061062f565b60405180910390fd5b8060018190555050565b6102d06103bf565b73ffffffffffffffffffffffffffffffffffffffff166102ee610219565b73ffffffffffffffffffffffffffffffffffffffff1614610344576040517f08c379a000000000000000000000000000000000000000000000000000000000815260040161033b9061062f565b60405180910390fd5b600073ffffffffffffffffffffffffffffffffffffffff168173ffffffffffffffffffffffffffffffffffffffff16036103b3576040517f08c379a00000000000000000000000000000000000000000000000000000000081526004016103aa906106c1565b60405180910390fd5b6103bc816103c7565b50565b600033905090565b60008060009054906101000a900473ffffffffffffffffffffffffffffffffffffffff169050816000806101000a81548173ffffffffffffffffffffffffffffffffffffffff021916908373ffffffffffffffffffffffffffffffffffffffff1602179055508173ffffffffffffffffffffffffffffffffffffffff168173ffffffffffffffffffffffffffffffffffffffff167f8be0079c531659141344cd1fd0a4f28419497f9722a3daafe3b4186f6b6457e060405160405180910390a35050565b600080fd5b6000819050919050565b6104a381610490565b81146104ae57600080fd5b50565b6000813590506104c08161049a565b92915050565b6000602082840312156104dc576104db61048b565b5b60006104ea848285016104b1565b91505092915050565b6104fc81610490565b82525050565b600060208201905061051760008301846104f3565b92915050565b600073ffffffffffffffffffffffffffffffffffffffff82169050919050565b60006105488261051d565b9050919050565b6105588161053d565b82525050565b6000602082019050610573600083018461054f565b92915050565b6105828161053d565b811461058d57600080fd5b50565b60008135905061059f81610579565b92915050565b6000602082840312156105bb576105ba61048b565b5b60006105c984828501610590565b91505092915050565b600082825260208201905092915050565b7f4f776e61626c653a2063616c6c6572206973206e6f7420746865206f776e6572600082015250565b60006106196020836105d2565b9150610624826105e3565b602082019050919050565b600060208201905081810360008301526106488161060c565b9050919050565b7f4f776e61626c653a206e6577206f776e657220697320746865207a65726f206160008201527f6464726573730000000000000000000000000000000000000000000000000000602082015250565b60006106ab6026836105d2565b91506106b68261064f565b604082019050919050565b600060208201905081810360008301526106da8161069e565b905091905056fea2646970667358221220217d5fb2a21a8aedf3c01ed5e1f6278f2d247d8ff905448624fb9ab733aa31ce64736f6c634300080d0033",
  "immutableReferences": {},
  "source": "// contracts/Box.sol\n// SPDX-License-Identifier: MIT\npragma solidity ^0.8.0;\n\n// Import Ownable from the OpenZeppelin Contracts library\nimport \"@openzeppelin/contracts/access/Ownable.sol\";\n\n// Make Box inherit from the Ownable contract\ncontract Box2 is Ownable {\n    uint256 private _value;\n\n    // event ValueChanged(uint256 value);\n\n    // The onlyOwner modifier restricts who can call the store function\n    function store2(uint256 value) public onlyOwner {\n        // emit ValueChanged(value);\n        _value = value;\n        \n    }\n\n    function addData(uint256 value) public onlyOwner {\n        _value = value;\n        // emit ValueChanged(value);\n    }\n\n\n\n    function retrieve() public view returns (uint256) {\n        return _value;\n    }\n}",
  "sourcePath": "/home/krishnashed/Desktop/Certisure/NFT1-master/contracts/Box2.sol",
  "compiler": {
    "name": "solc",
    "version": "0.8.13+commit.abaa5c0e.Emscripten.clang"
  },
  "schemaVersion": "3.4.7",
  "updatedAt": "2022-05-13T18:05:05.570Z",
  "networkType": "ethereum",
  "devdoc": {
    "kind": "dev",
    "methods": {
      "owner()": {
        "details": "Returns the address of the current owner."
      },
      "renounceOwnership()": {
        "details": "Leaves the contract without owner. It will not be possible to call `onlyOwner` functions anymore. Can only be called by the current owner. NOTE: Renouncing ownership will leave the contract without an owner, thereby removing any functionality that is only available to the owner."
      },
      "transferOwnership(address)": {
        "details": "Transfers ownership of the contract to a new account (`newOwner`). Can only be called by the current owner."
      }
    },
    "version": 1
  },
  "userdoc": {
    "kind": "user",
    "methods": {},
    "version": 1
  }
}