{
  "contractName": "CertisureTest",
  "abi": [
    {
      "anonymous": false,
      "inputs": [
        {
          "indexed": true,
          "internalType": "address",
          "name": "previousOwner",
          "type": "address"
        },
        {
          "indexed": true,
          "internalType": "address",
          "name": "newOwner",
          "type": "address"
        }
      ],
      "name": "OwnershipTransferred",
      "type": "event"
    },
    {
      "anonymous": false,
      "inputs": [
        {
          "indexed": true,
          "internalType": "bytes32",
          "name": "role",
          "type": "bytes32"
        },
        {
          "indexed": true,
          "internalType": "bytes32",
          "name": "previousAdminRole",
          "type": "bytes32"
        },
        {
          "indexed": true,
          "internalType": "bytes32",
          "name": "newAdminRole",
          "type": "bytes32"
        }
      ],
      "name": "RoleAdminChanged",
      "type": "event"
    },
    {
      "anonymous": false,
      "inputs": [
        {
          "indexed": true,
          "internalType": "bytes32",
          "name": "role",
          "type": "bytes32"
        },
        {
          "indexed": true,
          "internalType": "address",
          "name": "account",
          "type": "address"
        },
        {
          "indexed": true,
          "internalType": "address",
          "name": "sender",
          "type": "address"
        }
      ],
      "name": "RoleGranted",
      "type": "event"
    },
    {
      "anonymous": false,
      "inputs": [
        {
          "indexed": true,
          "internalType": "bytes32",
          "name": "role",
          "type": "bytes32"
        },
        {
          "indexed": true,
          "internalType": "address",
          "name": "account",
          "type": "address"
        },
        {
          "indexed": true,
          "internalType": "address",
          "name": "sender",
          "type": "address"
        }
      ],
      "name": "RoleRevoked",
      "type": "event"
    },
    {
      "inputs": [],
      "name": "DEFAULT_ADMIN_ROLE",
      "outputs": [
        {
          "internalType": "bytes32",
          "name": "",
          "type": "bytes32"
        }
      ],
      "stateMutability": "view",
      "type": "function"
    },
    {
      "inputs": [
        {
          "internalType": "bytes32",
          "name": "role",
          "type": "bytes32"
        }
      ],
      "name": "getRoleAdmin",
      "outputs": [
        {
          "internalType": "bytes32",
          "name": "",
          "type": "bytes32"
        }
      ],
      "stateMutability": "view",
      "type": "function"
    },
    {
      "inputs": [
        {
          "internalType": "bytes32",
          "name": "role",
          "type": "bytes32"
        },
        {
          "internalType": "address",
          "name": "account",
          "type": "address"
        }
      ],
      "name": "grantRole",
      "outputs": [],
      "stateMutability": "nonpayable",
      "type": "function"
    },
    {
      "inputs": [
        {
          "internalType": "bytes32",
          "name": "role",
          "type": "bytes32"
        },
        {
          "internalType": "address",
          "name": "account",
          "type": "address"
        }
      ],
      "name": "hasRole",
      "outputs": [
        {
          "internalType": "bool",
          "name": "",
          "type": "bool"
        }
      ],
      "stateMutability": "view",
      "type": "function"
    },
    {
      "inputs": [
        {
          "internalType": "address",
          "name": "",
          "type": "address"
        },
        {
          "internalType": "uint256",
          "name": "",
          "type": "uint256"
        }
      ],
      "name": "holderToCertificates",
      "outputs": [
        {
          "internalType": "string",
          "name": "name",
          "type": "string"
        },
        {
          "internalType": "string",
          "name": "organization",
          "type": "string"
        },
        {
          "internalType": "string",
          "name": "url",
          "type": "string"
        },
        {
          "internalType": "address",
          "name": "assignedBy",
          "type": "address"
        }
      ],
      "stateMutability": "view",
      "type": "function"
    },
    {
      "inputs": [],
      "name": "owner",
      "outputs": [
        {
          "internalType": "address",
          "name": "",
          "type": "address"
        }
      ],
      "stateMutability": "view",
      "type": "function"
    },
    {
      "inputs": [],
      "name": "renounceOwnership",
      "outputs": [],
      "stateMutability": "nonpayable",
      "type": "function"
    },
    {
      "inputs": [
        {
          "internalType": "bytes32",
          "name": "role",
          "type": "bytes32"
        },
        {
          "internalType": "address",
          "name": "account",
          "type": "address"
        }
      ],
      "name": "renounceRole",
      "outputs": [],
      "stateMutability": "nonpayable",
      "type": "function"
    },
    {
      "inputs": [
        {
          "internalType": "bytes32",
          "name": "role",
          "type": "bytes32"
        },
        {
          "internalType": "address",
          "name": "account",
          "type": "address"
        }
      ],
      "name": "revokeRole",
      "outputs": [],
      "stateMutability": "nonpayable",
      "type": "function"
    },
    {
      "inputs": [
        {
          "internalType": "bytes4",
          "name": "interfaceId",
          "type": "bytes4"
        }
      ],
      "name": "supportsInterface",
      "outputs": [
        {
          "internalType": "bool",
          "name": "",
          "type": "bool"
        }
      ],
      "stateMutability": "view",
      "type": "function"
    },
    {
      "inputs": [
        {
          "internalType": "address",
          "name": "newOwner",
          "type": "address"
        }
      ],
      "name": "transferOwnership",
      "outputs": [],
      "stateMutability": "nonpayable",
      "type": "function"
    },
    {
      "inputs": [],
      "name": "test",
      "outputs": [
        {
          "internalType": "string",
          "name": "",
          "type": "string"
        }
      ],
      "stateMutability": "pure",
      "type": "function"
    },
    {
      "inputs": [
        {
          "internalType": "address",
          "name": "_newIssuerAddress",
          "type": "address"
        }
      ],
      "name": "assignIssuerRole",
      "outputs": [],
      "stateMutability": "nonpayable",
      "type": "function"
    },
    {
      "inputs": [
        {
          "internalType": "string",
          "name": "str",
          "type": "string"
        },
        {
          "internalType": "uint256",
          "name": "startIndex",
          "type": "uint256"
        },
        {
          "internalType": "uint256",
          "name": "endIndex",
          "type": "uint256"
        }
      ],
      "name": "substring",
      "outputs": [
        {
          "internalType": "string",
          "name": "",
          "type": "string"
        }
      ],
      "stateMutability": "pure",
      "type": "function"
    },
    {
      "inputs": [
        {
          "internalType": "string",
          "name": "_name",
          "type": "string"
        },
        {
          "internalType": "string",
          "name": "_organization",
          "type": "string"
        },
        {
          "internalType": "string",
          "name": "_url",
          "type": "string"
        },
        {
          "internalType": "address",
          "name": "_assignTo",
          "type": "address"
        }
      ],
      "name": "_assignCertificate",
      "outputs": [],
      "stateMutability": "nonpayable",
      "type": "function"
    },
    {
      "inputs": [],
      "name": "_getCertificates",
      "outputs": [
        {
          "components": [
            {
              "internalType": "string",
              "name": "name",
              "type": "string"
            },
            {
              "internalType": "string",
              "name": "organization",
              "type": "string"
            },
            {
              "internalType": "string",
              "name": "url",
              "type": "string"
            },
            {
              "internalType": "address",
              "name": "assignedBy",
              "type": "address"
            }
          ],
          "internalType": "struct CertisureTest.Certificate[]",
          "name": "",
          "type": "tuple[]"
        }
      ],
      "stateMutability": "nonpayable",
      "type": "function"
    }
  ],
  "bytecode": "0x60806040527f114e74f6ea3bd819998f78687bfcb11b140da08e9b7d222fa9c1f1ba1f2aa1226004557f88a91f33d69233608ec901106cda3805f1356caac193014d6c70c694090df4ae6005553480156200005957600080fd5b506200007a6200006e6200008060201b60201c565b6200008860201b60201c565b6200014c565b600033905090565b60008060009054906101000a900473ffffffffffffffffffffffffffffffffffffffff169050816000806101000a81548173ffffffffffffffffffffffffffffffffffffffff021916908373ffffffffffffffffffffffffffffffffffffffff1602179055508173ffffffffffffffffffffffffffffffffffffffff168173ffffffffffffffffffffffffffffffffffffffff167f8be0079c531659141344cd1fd0a4f28419497f9722a3daafe3b4186f6b6457e060405160405180910390a35050565b6126ff806200015c6000396000f3fe608060405234801561001057600080fd5b50600436106101005760003560e01c806391d1485411610097578063c863c2fe11610066578063c863c2fe146102b0578063d547741f146102cc578063f2fde38b146102e8578063f8a8fd6d1461030457610100565b806391d1485414610228578063a0feeb9b14610258578063a217fddf14610274578063c01b1af81461029257610100565b806336568abe116100d357806336568abe146101b15780634db07c75146101cd578063715018a6146102005780638da5cb5b1461020a57610100565b806301ffc9a7146101055780631dcd9b5514610135578063248a9ca3146101655780632f2ff15d14610195575b600080fd5b61011f600480360381019061011a9190611a18565b610322565b60405161012c9190611a60565b60405180910390f35b61014f600480360381019061014a9190611bf7565b61039c565b60405161015c9190611cee565b60405180910390f35b61017f600480360381019061017a9190611d46565b610498565b60405161018c9190611d82565b60405180910390f35b6101af60048036038101906101aa9190611dfb565b6104b8565b005b6101cb60048036038101906101c69190611dfb565b6104e1565b005b6101e760048036038101906101e29190611e3b565b610564565b6040516101f79493929190611e8a565b60405180910390f35b610208610769565b005b6102126107f1565b60405161021f9190611ee4565b60405180910390f35b610242600480360381019061023d9190611dfb565b61081a565b60405161024f9190611a60565b60405180910390f35b610272600480360381019061026d9190611eff565b610885565b005b61027c610910565b6040516102899190611d82565b60405180910390f35b61029a610917565b6040516102a791906120b8565b60405180910390f35b6102ca60048036038101906102c591906120da565b610e91565b005b6102e660048036038101906102e19190611dfb565b61111a565b005b61030260048036038101906102fd9190611eff565b611143565b005b61030c61123a565b6040516103199190611cee565b60405180910390f35b60007f7965db0b000000000000000000000000000000000000000000000000000000007bffffffffffffffffffffffffffffffffffffffffffffffffffffffff1916827bffffffffffffffffffffffffffffffffffffffffffffffffffffffff19161480610395575061039482611277565b5b9050919050565b60606000849050600084846103b191906121c4565b67ffffffffffffffff8111156103ca576103c9611a96565b5b6040519080825280601f01601f1916602001820160405280156103fc5781602001600182028036833780820191505090505b50905060008590505b8481101561048b578281815181106104205761041f6121f8565b5b602001015160f81c60f81b82878361043891906121c4565b81518110610449576104486121f8565b5b60200101907effffffffffffffffffffffffffffffffffffffffffffffffffffffffffffff1916908160001a905350808061048390612227565b915050610405565b5080925050509392505050565b600060016000838152602001908152602001600020600101549050919050565b6104c182610498565b6104d2816104cd6112e1565b6112e9565b6104dc8383611386565b505050565b6104e96112e1565b73ffffffffffffffffffffffffffffffffffffffff168173ffffffffffffffffffffffffffffffffffffffff1614610556576040517f08c379a000000000000000000000000000000000000000000000000000000000815260040161054d906122e1565b60405180910390fd5b6105608282611466565b5050565b6002602052816000526040600020818154811061058057600080fd5b9060005260206000209060040201600091509150508060000180546105a490612330565b80601f01602080910402602001604051908101604052809291908181526020018280546105d090612330565b801561061d5780601f106105f25761010080835404028352916020019161061d565b820191906000526020600020905b81548152906001019060200180831161060057829003601f168201915b50505050509080600101805461063290612330565b80601f016020809104026020016040519081016040528092919081815260200182805461065e90612330565b80156106ab5780601f10610680576101008083540402835291602001916106ab565b820191906000526020600020905b81548152906001019060200180831161068e57829003601f168201915b5050505050908060020180546106c090612330565b80601f01602080910402602001604051908101604052809291908181526020018280546106ec90612330565b80156107395780601f1061070e57610100808354040283529160200191610739565b820191906000526020600020905b81548152906001019060200180831161071c57829003601f168201915b5050505050908060030160009054906101000a900473ffffffffffffffffffffffffffffffffffffffff16905084565b6107716112e1565b73ffffffffffffffffffffffffffffffffffffffff1661078f6107f1565b73ffffffffffffffffffffffffffffffffffffffff16146107e5576040517f08c379a00000000000000000000000000000000000000000000000000000000081526004016107dc906123ad565b60405180910390fd5b6107ef6000611548565b565b60008060009054906101000a900473ffffffffffffffffffffffffffffffffffffffff16905090565b60006001600084815260200190815260200160002060000160008373ffffffffffffffffffffffffffffffffffffffff1673ffffffffffffffffffffffffffffffffffffffff16815260200190815260200160002060009054906101000a900460ff16905092915050565b61088d6112e1565b73ffffffffffffffffffffffffffffffffffffffff166108ab6107f1565b73ffffffffffffffffffffffffffffffffffffffff1614610901576040517f08c379a00000000000000000000000000000000000000000000000000000000081526004016108f8906123ad565b60405180910390fd5b61090d6004548261160c565b50565b6000801b81565b60606109256005543361081a565b15610bd8576000339050600260008273ffffffffffffffffffffffffffffffffffffffff1673ffffffffffffffffffffffffffffffffffffffff168152602001908152602001600020805480602002602001604051908101604052809291908181526020016000905b82821015610bcc57838290600052602060002090600402016040518060800160405290816000820180546109c190612330565b80601f01602080910402602001604051908101604052809291908181526020018280546109ed90612330565b8015610a3a5780601f10610a0f57610100808354040283529160200191610a3a565b820191906000526020600020905b815481529060010190602001808311610a1d57829003601f168201915b50505050508152602001600182018054610a5390612330565b80601f0160208091040260200160405190810160405280929190818152602001828054610a7f90612330565b8015610acc5780601f10610aa157610100808354040283529160200191610acc565b820191906000526020600020905b815481529060010190602001808311610aaf57829003601f168201915b50505050508152602001600282018054610ae590612330565b80601f0160208091040260200160405190810160405280929190818152602001828054610b1190612330565b8015610b5e5780601f10610b3357610100808354040283529160200191610b5e565b820191906000526020600020905b815481529060010190602001808311610b4157829003601f168201915b505050505081526020016003820160009054906101000a900473ffffffffffffffffffffffffffffffffffffffff1673ffffffffffffffffffffffffffffffffffffffff1673ffffffffffffffffffffffffffffffffffffffff16815250508152602001906001019061098e565b50505050915050610e8e565b610be46004543361160c565b6000339050600260008273ffffffffffffffffffffffffffffffffffffffff1673ffffffffffffffffffffffffffffffffffffffff168152602001908152602001600020805480602002602001604051908101604052809291908181526020016000905b82821015610e865783829060005260206000209060040201604051806080016040529081600082018054610c7b90612330565b80601f0160208091040260200160405190810160405280929190818152602001828054610ca790612330565b8015610cf45780601f10610cc957610100808354040283529160200191610cf4565b820191906000526020600020905b815481529060010190602001808311610cd757829003601f168201915b50505050508152602001600182018054610d0d90612330565b80601f0160208091040260200160405190810160405280929190818152602001828054610d3990612330565b8015610d865780601f10610d5b57610100808354040283529160200191610d86565b820191906000526020600020905b815481529060010190602001808311610d6957829003601f168201915b50505050508152602001600282018054610d9f90612330565b80601f0160208091040260200160405190810160405280929190818152602001828054610dcb90612330565b8015610e185780601f10610ded57610100808354040283529160200191610e18565b820191906000526020600020905b815481529060010190602001808311610dfb57829003601f168201915b505050505081526020016003820160009054906101000a900473ffffffffffffffffffffffffffffffffffffffff1673ffffffffffffffffffffffffffffffffffffffff1673ffffffffffffffffffffffffffffffffffffffff168152505081526020019060010190610c48565b505050509150505b90565b600454610ea581610ea06112e1565b6112e9565b6000855111610eb357600080fd5b6000835111610ec157600080fd5b600073ffffffffffffffffffffffffffffffffffffffff168273ffffffffffffffffffffffffffffffffffffffff1603610efa57600080fd5b600073ffffffffffffffffffffffffffffffffffffffff163373ffffffffffffffffffffffffffffffffffffffff1603610f3357600080fd5b610f3c8361161a565b610f4557600080fd5b600260008373ffffffffffffffffffffffffffffffffffffffff1673ffffffffffffffffffffffffffffffffffffffff16815260200190815260200160002060405180608001604052808781526020018681526020018581526020013373ffffffffffffffffffffffffffffffffffffffff1681525090806001815401808255809150506001900390600052602060002090600402016000909190919091506000820151816000019080519060200190611000929190611909565b50602082015181600101908051906020019061101d929190611909565b50604082015181600201908051906020019061103a929190611909565b5060608201518160030160006101000a81548173ffffffffffffffffffffffffffffffffffffffff021916908373ffffffffffffffffffffffffffffffffffffffff16021790555050506001600360003373ffffffffffffffffffffffffffffffffffffffff1673ffffffffffffffffffffffffffffffffffffffff168152602001908152602001600020546110d091906123cd565b600360003373ffffffffffffffffffffffffffffffffffffffff1673ffffffffffffffffffffffffffffffffffffffff168152602001908152602001600020819055505050505050565b61112382610498565b6111348161112f6112e1565b6112e9565b61113e8383611466565b505050565b61114b6112e1565b73ffffffffffffffffffffffffffffffffffffffff166111696107f1565b73ffffffffffffffffffffffffffffffffffffffff16146111bf576040517f08c379a00000000000000000000000000000000000000000000000000000000081526004016111b6906123ad565b60405180910390fd5b600073ffffffffffffffffffffffffffffffffffffffff168173ffffffffffffffffffffffffffffffffffffffff160361122e576040517f08c379a000000000000000000000000000000000000000000000000000000000815260040161122590612495565b60405180910390fd5b61123781611548565b50565b60606040518060400160405280600b81526020017f48656c6c6f20576f726c64000000000000000000000000000000000000000000815250905090565b60007f01ffc9a7000000000000000000000000000000000000000000000000000000007bffffffffffffffffffffffffffffffffffffffffffffffffffffffff1916827bffffffffffffffffffffffffffffffffffffffffffffffffffffffff1916149050919050565b600033905090565b6112f3828261081a565b611382576113188173ffffffffffffffffffffffffffffffffffffffff1660146116cd565b6113268360001c60206116cd565b604051602001611337929190612589565b6040516020818303038152906040526040517f08c379a00000000000000000000000000000000000000000000000000000000081526004016113799190611cee565b60405180910390fd5b5050565b611390828261081a565b61146257600180600084815260200190815260200160002060000160008373ffffffffffffffffffffffffffffffffffffffff1673ffffffffffffffffffffffffffffffffffffffff16815260200190815260200160002060006101000a81548160ff0219169083151502179055506114076112e1565b73ffffffffffffffffffffffffffffffffffffffff168173ffffffffffffffffffffffffffffffffffffffff16837f2f8788117e7eff1d82e926ec794901d17c78024a50270940304540a733656f0d60405160405180910390a45b5050565b611470828261081a565b156115445760006001600084815260200190815260200160002060000160008373ffffffffffffffffffffffffffffffffffffffff1673ffffffffffffffffffffffffffffffffffffffff16815260200190815260200160002060006101000a81548160ff0219169083151502179055506114e96112e1565b73ffffffffffffffffffffffffffffffffffffffff168173ffffffffffffffffffffffffffffffffffffffff16837ff6391f5c32d9c69d2a47ea670b442974b53935d1edc7fd64eb21e047a839171b60405160405180910390a45b5050565b60008060009054906101000a900473ffffffffffffffffffffffffffffffffffffffff169050816000806101000a81548173ffffffffffffffffffffffffffffffffffffffff021916908373ffffffffffffffffffffffffffffffffffffffff1602179055508173ffffffffffffffffffffffffffffffffffffffff168173ffffffffffffffffffffffffffffffffffffffff167f8be0079c531659141344cd1fd0a4f28419497f9722a3daafe3b4186f6b6457e060405160405180910390a35050565b6116168282611386565b5050565b6000601582511161162a57600080fd5b60006040518060400160405280601581526020017f68747470733a2f2f697066732e696f2f697066732f000000000000000000000081525090506000611673846000601561039c565b90508060405160200161168691906125c3565b60405160208183030381529060405280519060200120826040516020016116ad91906125c3565b604051602081830303815290604052805190602001201492505050919050565b6060600060028360026116e091906125da565b6116ea91906123cd565b67ffffffffffffffff81111561170357611702611a96565b5b6040519080825280601f01601f1916602001820160405280156117355781602001600182028036833780820191505090505b5090507f30000000000000000000000000000000000000000000000000000000000000008160008151811061176d5761176c6121f8565b5b60200101907effffffffffffffffffffffffffffffffffffffffffffffffffffffffffffff1916908160001a9053507f7800000000000000000000000000000000000000000000000000000000000000816001815181106117d1576117d06121f8565b5b60200101907effffffffffffffffffffffffffffffffffffffffffffffffffffffffffffff1916908160001a9053506000600184600261181191906125da565b61181b91906123cd565b90505b60018111156118bb577f3031323334353637383961626364656600000000000000000000000000000000600f86166010811061185d5761185c6121f8565b5b1a60f81b828281518110611874576118736121f8565b5b60200101907effffffffffffffffffffffffffffffffffffffffffffffffffffffffffffff1916908160001a905350600485901c9450806118b490612634565b905061181e565b50600084146118ff576040517f08c379a00000000000000000000000000000000000000000000000000000000081526004016118f6906126a9565b60405180910390fd5b8091505092915050565b82805461191590612330565b90600052602060002090601f016020900481019282611937576000855561197e565b82601f1061195057805160ff191683800117855561197e565b8280016001018555821561197e579182015b8281111561197d578251825591602001919060010190611962565b5b50905061198b919061198f565b5090565b5b808211156119a8576000816000905550600101611990565b5090565b6000604051905090565b600080fd5b600080fd5b60007fffffffff0000000000000000000000000000000000000000000000000000000082169050919050565b6119f5816119c0565b8114611a0057600080fd5b50565b600081359050611a12816119ec565b92915050565b600060208284031215611a2e57611a2d6119b6565b5b6000611a3c84828501611a03565b91505092915050565b60008115159050919050565b611a5a81611a45565b82525050565b6000602082019050611a756000830184611a51565b92915050565b600080fd5b600080fd5b6000601f19601f8301169050919050565b7f4e487b7100000000000000000000000000000000000000000000000000000000600052604160045260246000fd5b611ace82611a85565b810181811067ffffffffffffffff82111715611aed57611aec611a96565b5b80604052505050565b6000611b006119ac565b9050611b0c8282611ac5565b919050565b600067ffffffffffffffff821115611b2c57611b2b611a96565b5b611b3582611a85565b9050602081019050919050565b82818337600083830152505050565b6000611b64611b5f84611b11565b611af6565b905082815260208101848484011115611b8057611b7f611a80565b5b611b8b848285611b42565b509392505050565b600082601f830112611ba857611ba7611a7b565b5b8135611bb8848260208601611b51565b91505092915050565b6000819050919050565b611bd481611bc1565b8114611bdf57600080fd5b50565b600081359050611bf181611bcb565b92915050565b600080600060608486031215611c1057611c0f6119b6565b5b600084013567ffffffffffffffff811115611c2e57611c2d6119bb565b5b611c3a86828701611b93565b9350506020611c4b86828701611be2565b9250506040611c5c86828701611be2565b9150509250925092565b600081519050919050565b600082825260208201905092915050565b60005b83811015611ca0578082015181840152602081019050611c85565b83811115611caf576000848401525b50505050565b6000611cc082611c66565b611cca8185611c71565b9350611cda818560208601611c82565b611ce381611a85565b840191505092915050565b60006020820190508181036000830152611d088184611cb5565b905092915050565b6000819050919050565b611d2381611d10565b8114611d2e57600080fd5b50565b600081359050611d4081611d1a565b92915050565b600060208284031215611d5c57611d5b6119b6565b5b6000611d6a84828501611d31565b91505092915050565b611d7c81611d10565b82525050565b6000602082019050611d976000830184611d73565b92915050565b600073ffffffffffffffffffffffffffffffffffffffff82169050919050565b6000611dc882611d9d565b9050919050565b611dd881611dbd565b8114611de357600080fd5b50565b600081359050611df581611dcf565b92915050565b60008060408385031215611e1257611e116119b6565b5b6000611e2085828601611d31565b9250506020611e3185828601611de6565b9150509250929050565b60008060408385031215611e5257611e516119b6565b5b6000611e6085828601611de6565b9250506020611e7185828601611be2565b9150509250929050565b611e8481611dbd565b82525050565b60006080820190508181036000830152611ea48187611cb5565b90508181036020830152611eb88186611cb5565b90508181036040830152611ecc8185611cb5565b9050611edb6060830184611e7b565b95945050505050565b6000602082019050611ef96000830184611e7b565b92915050565b600060208284031215611f1557611f146119b6565b5b6000611f2384828501611de6565b91505092915050565b600081519050919050565b600082825260208201905092915050565b6000819050602082019050919050565b600082825260208201905092915050565b6000611f7482611c66565b611f7e8185611f58565b9350611f8e818560208601611c82565b611f9781611a85565b840191505092915050565b611fab81611dbd565b82525050565b60006080830160008301518482036000860152611fce8282611f69565b91505060208301518482036020860152611fe88282611f69565b915050604083015184820360408601526120028282611f69565b91505060608301516120176060860182611fa2565b508091505092915050565b600061202e8383611fb1565b905092915050565b6000602082019050919050565b600061204e82611f2c565b6120588185611f37565b93508360208202850161206a85611f48565b8060005b858110156120a657848403895281516120878582612022565b945061209283612036565b925060208a0199505060018101905061206e565b50829750879550505050505092915050565b600060208201905081810360008301526120d28184612043565b905092915050565b600080600080608085870312156120f4576120f36119b6565b5b600085013567ffffffffffffffff811115612112576121116119bb565b5b61211e87828801611b93565b945050602085013567ffffffffffffffff81111561213f5761213e6119bb565b5b61214b87828801611b93565b935050604085013567ffffffffffffffff81111561216c5761216b6119bb565b5b61217887828801611b93565b925050606061218987828801611de6565b91505092959194509250565b7f4e487b7100000000000000000000000000000000000000000000000000000000600052601160045260246000fd5b60006121cf82611bc1565b91506121da83611bc1565b9250828210156121ed576121ec612195565b5b828203905092915050565b7f4e487b7100000000000000000000000000000000000000000000000000000000600052603260045260246000fd5b600061223282611bc1565b91507fffffffffffffffffffffffffffffffffffffffffffffffffffffffffffffffff820361226457612263612195565b5b600182019050919050565b7f416363657373436f6e74726f6c3a2063616e206f6e6c792072656e6f756e636560008201527f20726f6c657320666f722073656c660000000000000000000000000000000000602082015250565b60006122cb602f83611c71565b91506122d68261226f565b604082019050919050565b600060208201905081810360008301526122fa816122be565b9050919050565b7f4e487b7100000000000000000000000000000000000000000000000000000000600052602260045260246000fd5b6000600282049050600182168061234857607f821691505b60208210810361235b5761235a612301565b5b50919050565b7f4f776e61626c653a2063616c6c6572206973206e6f7420746865206f776e6572600082015250565b6000612397602083611c71565b91506123a282612361565b602082019050919050565b600060208201905081810360008301526123c68161238a565b9050919050565b60006123d882611bc1565b91506123e383611bc1565b9250827fffffffffffffffffffffffffffffffffffffffffffffffffffffffffffffffff0382111561241857612417612195565b5b828201905092915050565b7f4f776e61626c653a206e6577206f776e657220697320746865207a65726f206160008201527f6464726573730000000000000000000000000000000000000000000000000000602082015250565b600061247f602683611c71565b915061248a82612423565b604082019050919050565b600060208201905081810360008301526124ae81612472565b9050919050565b600081905092915050565b7f416363657373436f6e74726f6c3a206163636f756e7420000000000000000000600082015250565b60006124f66017836124b5565b9150612501826124c0565b601782019050919050565b600061251782611c66565b61252181856124b5565b9350612531818560208601611c82565b80840191505092915050565b7f206973206d697373696e6720726f6c6520000000000000000000000000000000600082015250565b60006125736011836124b5565b915061257e8261253d565b601182019050919050565b6000612594826124e9565b91506125a0828561250c565b91506125ab82612566565b91506125b7828461250c565b91508190509392505050565b60006125cf828461250c565b915081905092915050565b60006125e582611bc1565b91506125f083611bc1565b9250817fffffffffffffffffffffffffffffffffffffffffffffffffffffffffffffffff048311821515161561262957612628612195565b5b828202905092915050565b600061263f82611bc1565b91506000820361265257612651612195565b5b600182039050919050565b7f537472696e67733a20686578206c656e67746820696e73756666696369656e74600082015250565b6000612693602083611c71565b915061269e8261265d565b602082019050919050565b600060208201905081810360008301526126c281612686565b905091905056fea26469706673582212205ccf010ff0c058b7b85e5b48bac7b0611edfe434707fdfc09ae24af0b56d076164736f6c634300080d0033",
  "immutableReferences": {},
  "source": "// SPDX-License-Identifier: MIT\npragma solidity ^0.8.13;\n\nimport \"@openzeppelin/contracts/access/Ownable.sol\";\nimport \"@openzeppelin/contracts/access/AccessControl.sol\";\n\ncontract CertisureTest is Ownable, AccessControl {\n    struct Certificate {\n        string name;\n        string organization;\n        string url;\n        address assignedBy;\n    }\n\n    mapping(address => Certificate[]) public holderToCertificates;\n    mapping(address => uint256) holderCertificateCount;\n\n    bytes32 ISSUER_ROLE = keccak256(\"ISSUER_ROLE\");\n    bytes32 HOLDER_ROLE = keccak256(\"HOLDER_ROLE\");\n\n    function test() public pure returns (string memory) {\n        return \"Hello World\";\n    }\n\n    modifier onlyHolder() {\n        if (hasRole(HOLDER_ROLE, msg.sender)) {\n            _;\n        } else {\n            _setupRole(ISSUER_ROLE, msg.sender);\n            _;\n        }\n    }\n\n    function assignIssuerRole(address _newIssuerAddress) public onlyOwner {\n        _setupRole(ISSUER_ROLE, _newIssuerAddress);\n    }\n\n    function substring(\n        string memory str,\n        uint256 startIndex,\n        uint256 endIndex\n    ) public pure returns (string memory) {\n        bytes memory strBytes = bytes(str);\n        bytes memory result = new bytes(endIndex - startIndex);\n        for (uint256 i = startIndex; i < endIndex; i++) {\n            result[i - startIndex] = strBytes[i];\n        }\n        return string(result);\n    }\n\n    function checkURL(string memory _url) private pure returns (bool) {\n        require(bytes(_url).length > 21);\n        string memory ipfsPrefix = \"https://ipfs.io/ipfs/\";\n        string memory urlPrefix = substring(_url, 0, 21);\n        return (keccak256(abi.encodePacked((ipfsPrefix))) ==\n            keccak256(abi.encodePacked((urlPrefix))));\n    }\n\n    function _assignCertificate(\n        string memory _name,\n        string memory _organization,\n        string memory _url,\n        address _assignTo\n    ) public onlyRole(ISSUER_ROLE) {\n        require(bytes(_name).length > 0);\n        require(bytes(_url).length > 0);\n        require(_assignTo != address(0));\n        require(msg.sender != address(0));\n        require(checkURL(_url));\n\n        holderToCertificates[_assignTo].push(\n            Certificate(_name, _organization, _url, msg.sender)\n        );\n\n        holderCertificateCount[msg.sender] =\n            holderCertificateCount[msg.sender] +\n            1;\n    }\n\n    function _getCertificates()\n        public\n        onlyHolder\n        returns (Certificate[] memory)\n    {\n        address holder = msg.sender;\n        return holderToCertificates[holder];\n    }\n}\n",
  "sourcePath": "/home/krishnashed/Desktop/Certisure/NFT1-master/contracts/CertisureTest.sol",
  "compiler": {
    "name": "solc",
    "version": "0.8.13+commit.abaa5c0e.Emscripten.clang"
  },
  "schemaVersion": "3.4.7",
  "updatedAt": "2022-05-13T16:42:23.450Z",
  "devdoc": {
    "kind": "dev",
    "methods": {
      "getRoleAdmin(bytes32)": {
        "details": "Returns the admin role that controls `role`. See {grantRole} and {revokeRole}. To change a role's admin, use {_setRoleAdmin}."
      },
      "grantRole(bytes32,address)": {
        "details": "Grants `role` to `account`. If `account` had not been already granted `role`, emits a {RoleGranted} event. Requirements: - the caller must have ``role``'s admin role."
      },
      "hasRole(bytes32,address)": {
        "details": "Returns `true` if `account` has been granted `role`."
      },
      "owner()": {
        "details": "Returns the address of the current owner."
      },
      "renounceOwnership()": {
        "details": "Leaves the contract without owner. It will not be possible to call `onlyOwner` functions anymore. Can only be called by the current owner. NOTE: Renouncing ownership will leave the contract without an owner, thereby removing any functionality that is only available to the owner."
      },
      "renounceRole(bytes32,address)": {
        "details": "Revokes `role` from the calling account. Roles are often managed via {grantRole} and {revokeRole}: this function's purpose is to provide a mechanism for accounts to lose their privileges if they are compromised (such as when a trusted device is misplaced). If the calling account had been revoked `role`, emits a {RoleRevoked} event. Requirements: - the caller must be `account`."
      },
      "revokeRole(bytes32,address)": {
        "details": "Revokes `role` from `account`. If `account` had been granted `role`, emits a {RoleRevoked} event. Requirements: - the caller must have ``role``'s admin role."
      },
      "supportsInterface(bytes4)": {
        "details": "See {IERC165-supportsInterface}."
      },
      "transferOwnership(address)": {
        "details": "Transfers ownership of the contract to a new account (`newOwner`). Can only be called by the current owner."
      }
    },
    "version": 1
  },
  "userdoc": {
    "kind": "user",
    "methods": {},
    "version": 1
  }
}